:100000000C9472000C948F000C948F000C948F0051
:100010000C948F000C948F000C948F000C948F0024
:100020000C948F000C948F000C94A5030C948F00FB
:100030000C948F000C948F000C948F000C948F0004
:100040000C948F000C948F000C948F000C948F00F4
:100050000C948F009D00B600CF00E8000001000165
:100060000001000100010001000100010001000188
:100070000001000100010001000100010001000178
:100080000001000100010001000100010001000168
:10009000000100019D00B600CF00E8000D0126011F
:1000A0003F01580170017001700170017001700111
:1000B00070017001700170017001700170017001B8
:1000C00070017001700170017001700170017001A8
:1000D0007001700170017001700170010D01260145
:1000E0003F01580111241FBECFE5D8E0DEBFCDBFD0
:1000F00010E0A0E6B0E0ECE9F7E002C005900D9258
:10010000A439B107D9F720E0A4E9B0E001C01D92FD
:10011000A539B207E1F70E9407030C94CC030C94B5
:10012000000090E0FC01E154F109E432F10508F02F
:1001300067C0E65DFF4F0C94C603413059F42AB303
:1001400081E090E002C0880F991F6A95E2F7822B48
:100150008ABB08952AB381E090E002C0880F991FFE
:100160006A95E2F7809582238ABB0895413059F45D
:1001700027B381E090E002C0880F991F6A95E2F7EB
:10018000822B87BB089527B381E090E002C0880FDF
:10019000991F6A95E2F78095822387BB08954130C5
:1001A00059F424B381E090E002C0880F991F6A954A
:1001B000E2F7822B84BB089524B381E090E002C073
:1001C000880F991F6A95E2F78095822384BB089572
:1001D000413059F421B381E090E002C0880F991FAB
:1001E0006A95E2F7822B81BB089521B381E090E00C
:1001F00002C0880F991F6A95E2F78095822381BB20
:10020000089590E0FC01E154F109E432F10508F0B1
:1002100067C0E25BFF4F0C94C603413059F42BB327
:1002200081E090E002C0880F991F6A95E2F7822B67
:100230008BBB08952BB381E090E002C0880F991F1B
:100240006A95E2F7809582238BBB0895413059F47B
:1002500028B381E090E002C0880F991F6A95E2F709
:10026000822B88BB089528B381E090E002C0880FFC
:10027000991F6A95E2F78095822388BB08954130E3
:1002800059F425B381E090E002C0880F991F6A9568
:10029000E2F7822B85BB089525B381E090E002C090
:1002A000880F991F6A95E2F78095822385BB089590
:1002B000413059F422B381E090E002C0880F991FC9
:1002C0006A95E2F7822B82BB089522B381E090E029
:1002D00002C0880F991F6A95E2F78095822382BB3E
:1002E000089541E062E081E40E9401018FEC97E013
:1002F0000197F1F700C0000040E062E081E40E9455
:1003000001018FEC97E00197F1F700C0000008951C
:10031000CF93C82F482F407150E05595479555957C
:100320004795559547955595479563E081E40E941B
:1003300001014C2F407250E05595479555954795D2
:1003400055954795559547955595479564E081E4B2
:100350000E9401014C2F407450E0042E452F000CE8
:10036000441F550B000C441F551F65E081E40E949B
:1003700001014C2F441F4427441F66E081E40E9482
:10038000010141E061E081E40E9401010E947101EC
:100390004C2F417063E081E40E9401014C2F4270B8
:1003A00050E05595479564E081E40E9401014C2F8F
:1003B000447050E0559547955595479565E081E423
:1003C0000E940101C8704C2F50E0559547955595F6
:1003D00047955595479566E081E40E94010141E00B
:1003E00061E081E40E9401010E9471018FEC97E0BD
:1003F0000197F1F700C00000CF910895CF93C82F67
:10040000482F407150E0559547955595479555951E
:1004100047955595479563E081E40E9401014C2F73
:10042000407250E055954795559547955595479598
:10043000559547955595479564E081E40E940101E3
:100440004C2F407450E0042E452F000C441F550BD8
:10045000000C441F551F65E081E40E9401014C2FF0
:10046000441F4427441F66E081E40E94010140E0EC
:1004700061E081E40E9401010E9471014C2F4170F2
:1004800063E081E40E9401014C2F427050E05595D9
:10049000479564E081E40E9401014C2F447050E0D4
:1004A000559547955595479565E081E40E94010172
:1004B000C8704C2F50E055954795559547955595E3
:1004C000479566E081E40E94010140E061E081E43B
:1004D0000E9401010E9471018FEC97E00197F1F7F2
:1004E00000C00000CF9108952FEF81EE94E02150DD
:1004F00080409040E1F700C0000041E063E081E40B
:100500000E94910041E064E081E40E94910041E09A
:1005100065E081E40E94910041E066E081E40E9490
:10052000910041E061E081E40E94910041E062E0DD
:1005300081E40E94910082E00E94FE018FE19EE42E
:100540000197F1F700C0000088E20E94FE018FECE5
:1005500097E00197F1F700C000008CE00E94FE01D7
:100560008FEC97E00197F1F700C0000081E00E9456
:10057000FE018FE19EE40197F1F700C0000086E0E4
:100580000E94FE018FEC97E00197F1F700C0000098
:10059000089581E00E94FE0108959FEF980F923028
:1005A00070F4662371F0613170F4813019F42FE733
:1005B000260F0AC0823041F42FEB260F05C020E839
:1005C00003C020E801C020E8822F0E94FE018FECCA
:1005D00097E00197F1F700C000000895CF93DF93F3
:1005E000EC0103C00E948801219688818111FACF15
:1005F000DF91CF91089541E00E949100089541E07C
:100600000E940101089540E00E94010108950E94A6
:10061000740261E083E40E94FB0262E083E40E94D2
:10062000FB0260E083E40E94FB020E94B6038AE0C2
:100630008093620085E08093610087E08093600092
:100640000E94C90283E690E00E94EE0261E083E42A
:100650000E94FF0260E083E40E94030315C09091B2
:100660009400953688F01092940081508093620037
:100670006BE081E00E94CD0280E20E9488018091BF
:100680006200805D0E948801809162008111E7CF45
:100690002FEF84E39CE0215080409040E1F700C0C0
:1006A00000000E94C90284E790E00E94EE0261E02F
:1006B00083E40E94030362E083E40E94FF0212C00D
:1006C00090919400953670F0109294008150809330
:1006D00061006BE081E00E94CD0280916100805D4D
:1006E0000E948801809161008111EACF2FEF84E39D
:1006F0009CE0215080409040E1F700C000000E9443
:10070000C90284E890E00E94EE0262E083E40E9465
:10071000030360E083E40E94FF0212C09091940002
:10072000953670F0109294008150809360006BE0D9
:1007300081E00E94CD0280916000805D0E9488016E
:10074000809160008111EACF72CF1F920F920FB695
:100750000F9211248F93809194008F5F8093940067
:100760008F910F900FBE0F901F90189583B78860E0
:1007700083BF80E58CBF83B7816083BF83B784600C
:1007800083BF789489B7826089BF0895EE0FFF1FF9
:0C0790000590F491E02D0994F894FFCF3F
:10079C0007050A52656D61696E696E6720313020FC
:1007AC007365630052656D61696E696E67203520F3
:1007BC007365630052656D61696E696E67203720E1
:0407CC0073656300EE
:00000001FF
